:100000000C942A000C9447000C9447000C94470071
:100010000C9447000C9447000C9447000C94470044
:100020000C9447000C940D010C9447000C940003B1
:100030000C9447000C9488010C9447000C944700E2
:100040000C9447000C9447000C9447000C94470014
:100050000C94470011241FBECFE5D4E0DEBFCDBF16
:1000600012E0A0E6B0E0EAE2F7E002C005900D92EF
:10007000A036B107D9F712E0A0E6B2E001C01D92A8
:10008000AE3AB107E1F70E94CD000C9493030C94B3
:10009000000010929D028E77816080936402089523
:1000A0001F9310E020E030E041E050E0F901E0561D
:1000B000FD4F8081843040F0CA01022E02C0880FBB
:1000C000991F0A94E2F7182B2F5F3F4F2730310515
:1000D00069F720916402812F822349F0F8941092ED
:1000E0009F0210929E02789481E080939D028091FD
:1000F0009D02813049F480919E0290919F028D5E15
:10010000944010F010929D028091A702843081F4F7
:10011000F89485E08093A7027894213021F410921E
:100120009D028FE703C010929D0281E080936402DC
:10013000809164028F3731F0813039F080919E02D6
:1001400084FF03C082E061E002C082E060E00E94C0
:10015000DC0060919D0280919802682B81E00E94F2
:10016000DC0080916102812B80936102A8951F9130
:10017000089510929D0281E0809364020E94F20033
:100180000E94B2012AE088E190E00FB6F894A895A9
:1001900081BD0FBE21BD789408950E94B9000E94D0
:1001A0005000FDCF93B380B382958695869583707A
:1001B0009C7F890F8058089591E0961B813041F40F
:1001C000992311F493980895913059F4939A0895CE
:1001D000823039F4992311F492980895913009F4FA
:1001E000929A08958FEF8ABB87BB83E084BB8CE330
:1001F00081BB81E060E00E94DC0082E060E00E9460
:10020000DC0085E083BF81E089BFE0EAF2E0119283
:1002100082E0E83AF807D9F708951F920F920FB6D7
:100220000F9211242F933F934F935F936F937F937C
:100230008F939F93AF93BF93EF93FF9340919E0251
:1002400050919F024F5F5F4F50939F0240939E02D9
:1002500093B380B382958695869583709C7F890F32
:100260008058E0EAF2E020E030E0A1E0B0E0682F62
:1002700070E0CD01022E02C0880F991F0A94E2F7A8
:10028000862397231816190624F480818F5F8083B4
:1002900001C010822F5F3F4F31962830310549F75A
:1002A00080916502882359F480919A0290919B0273
:1002B000481B590B4330510510F00E947001FF910B
:1002C000EF91BF91AF919F918F917F916F915F91CE
:1002D0004F913F912F910F900FBE0F901F90189547
:1002E000949881E08093650208959091AB0280918B
:1002F0006302981711F480E00895E92FF0E0EA59BD
:10030000FD4F80818CB99F5F9093AB0281E008958F
:100310001F920F920FB60F9211248F939F93EF931A
:10032000FF93809165028130A1F09091AB028091A2
:100330006302981751F0E92FF0E0EA59FD4F8081F0
:100340008CB99F5F9093AB0204C0949881E0809336
:100350006502FF91EF919F918F910F900FBE0F90CB
:100360001F90189591E09093A80210BC8BE089B97A
:1003700086E880BD8AB1886D8AB9949890936502A9
:100380000895CF93DF932091AA022330C1F58AE02C
:1003900080936602209367028091A90290E0880F03
:1003A000991F80936802209363028091AD02C82F49
:1003B000D0E01AC0CE010E942503282F80919C0214
:1003C000813009F472C080916302E82FF0E0EA59AD
:1003D000FD4F90838F5FE82FF0E0EA59FD4F2083B7
:1003E0008F5F8093630221962091A9028091AD02D4
:1003F00090E0820F911DC817D907E0F22BC026307C
:1004000049F58AE0809366022093670210926802A1
:100410008091AD028093690294E0909363026091B1
:10042000AC0290E070E00E944F03282F80919C0264
:100430008130D9F180916302E82FF0E0EA59FD4F55
:1004400090838F5FE82FF0E0EA59FD4F20838F5FA4
:10045000809363020E94750320916302E22FF0E013
:10046000EA59FD4F8091990280832F5FE22FF0E0DF
:10047000EA59FD4F8091620280832F5F20936302CF
:100480001092AB02949A1092650280919E02909114
:100490009F0290939B0280939A02222331F08091D5
:1004A00066028CB981E08093AB02DF91CF91089511
:1004B000382F90916202809199026091AD0244E0E0
:1004C00050E0461B51092091A802253019F445C07F
:1004D00021E022C0263070F4223029F1233020F4AC
:1004E000213009F08AC018C0233039F1243009F0D6
:1004F00084C027C0283009F44EC0293030F426309B
:1005000089F1273009F079C041C0293009F465C06C
:100510002A3009F072C066C02093A8023A3009F070
:100520006EC082E067C0363011F0333089F683E068
:100530008093A8023093AA020895332349F684E0F9
:1005400059C0343028F63093AD028091AA0286302B
:1005500011F087E04FC085E04DC0332309F0B8CFDC
:1005600086E048C02093A8023093AC028AE08093D2
:1005700066022093670210926802609369021092EB
:100580006A0230936B022093630223C0332309F085
:100590009FCF88E02FC0832F90E0481759070CF4B5
:1005A00097CF332309F494CF2093A8023093A90264
:1005B0008AE08093660283E080936702109268026B
:1005C0006093690210926A0230936B0286E0809316
:1005D00063020E94750389E00DC0381709F078CFD7
:1005E0008AE008C0391709F073CF2093A8020E944F
:1005F000C10181E08093A80208952093A802089584
:100600001F920F920FB60F9211242F933F934F9387
:100610005F936F937F938F939F93AF93BF93EF936A
:10062000FF938CB10E945802FF91EF91BF91AF915F
:100630009F918F917F916F915F914F913F912F91FA
:100640000F900FBE0F901F90189510929C02813052
:10065000910599F08130910530F08230910581F05B
:100660000397B1F412C090919D0280E02091610245
:10067000AC01420F511D9A0110C08091640202C06A
:1006800080919802282F30E008C080916002FACF54
:1006900081E080939C0220E030E0C901089510922F
:1006A0009C028130910561F08130910530F08230FB
:1006B000910571F0039791F40EC06093610206C03A
:1006C000862F0E94490080916402682F70E00BC061
:1006D00060939802FBCF60936002F8CF81E0809333
:1006E0009C0260E070E0CB01089580916302A6E671
:1006F000B2E04FEF9FEF282F30E02A0F3B1F0BC0D7
:100700008D919827E92FF0E0EE0FFF1FE05AFF4F81
:10071000908194274181A217B30791F79093990292
:0A072000409362020895F894FFCFA1
:10072A000000C1C081C1400101C3C003800241C2AF
:10073A0001C6C006800741C70005C1C581C440047F
:10074A0001CCC00C800D41CD000FC1CF81CE400E2F
:10075A00000AC1CA81CB400B01C9C009800841C83F
:10076A0001D8C018801941D9001BC1DB81DA401AAF
:10077A00001EC1DE81DF401F01DDC01D801C41DC7F
:10078A000014C1D481D5401501D7C017801641D6AF
:10079A0001D2C012801341D30011C1D181D04010BF
:1007AA0001F0C030803141F10033C1F381F24032AF
:1007BA000036C1F681F7403701F5C035803441F47F
:1007CA00003CC1FC81FD403D01FFC03F803E41FE2F
:1007DA0001FAC03A803B41FB0039C1F981F840383F
:1007EA000028C1E881E9402901EBC02B802A41EAAF
:1007FA0001EEC02E802F41EF002DC1ED81EC402C7F
:10080A0001E4C024802541E50027C1E781E64026AE
:10081A000022C1E281E3402301E1C021802041E0BE
:10082A0001A0C060806141A10063C1A381A24062AE
:10083A000066C1A681A7406701A5C065806441A47E
:10084A00006CC1AC81AD406D01AFC06F806E41AE2E
:10085A0001AAC06A806B41AB0069C1A981A840683E
:10086A000078C1B881B9407901BBC07B807A41BAAE
:10087A0001BEC07E807F41BF007DC1BD81BC407C7E
:10088A0001B4C074807541B50077C1B781B64076AE
:10089A000072C1B281B3407301B1C071807041B0BE
:1008AA000050C190819140510193C05380524192AE
:1008BA000196C056805741970055C195819440547E
:1008CA00019CC05C805D419D005FC19F819E405E2E
:1008DA00005AC19A819B405B0199C059805841983E
:1008EA000188C04880494189004BC18B818A404AAE
:1008FA00004EC18E818F404F018DC04D804C418C7E
:10090A000044C184818540450187C04780464186AD
:10091A000182C042804341830041C18181804040BD
:00000001FF
